{
  "_format": "hh-sol-artifact-1",
  "contractName": "Domains",
  "sourceName": "contracts/Domains.sol",
  "abi": [
    {
      "inputs": [
        {
          "internalType": "string",
          "name": "_tld",
          "type": "string"
        }
      ],
      "stateMutability": "payable",
      "type": "constructor"
    },
    {
      "inputs": [],
      "name": "AlreadyRegistered",
      "type": "error"
    },
    {
      "inputs": [
        {
          "internalType": "string",
          "name": "name",
          "type": "string"
        }
      ],
      "name": "InvalidName",
      "type": "error"
    },
    {
      "inputs": [],
      "name": "Unautherized",
      "type": "error"
    },
    {
      "anonymous": false,
      "inputs": [
        {
          "indexed": true,
          "internalType": "address",
          "name": "owner",
          "type": "address"
        },
        {
          "indexed": true,
          "internalType": "address",
          "name": "approved",
          "type": "address"
        },
        {
          "indexed": true,
          "internalType": "uint256",
          "name": "tokenId",
          "type": "uint256"
        }
      ],
      "name": "Approval",
      "type": "event"
    },
    {
      "anonymous": false,
      "inputs": [
        {
          "indexed": true,
          "internalType": "address",
          "name": "owner",
          "type": "address"
        },
        {
          "indexed": true,
          "internalType": "address",
          "name": "operator",
          "type": "address"
        },
        {
          "indexed": false,
          "internalType": "bool",
          "name": "approved",
          "type": "bool"
        }
      ],
      "name": "ApprovalForAll",
      "type": "event"
    },
    {
      "anonymous": false,
      "inputs": [
        {
          "indexed": true,
          "internalType": "address",
          "name": "from",
          "type": "address"
        },
        {
          "indexed": true,
          "internalType": "address",
          "name": "to",
          "type": "address"
        },
        {
          "indexed": true,
          "internalType": "uint256",
          "name": "tokenId",
          "type": "uint256"
        }
      ],
      "name": "Transfer",
      "type": "event"
    },
    {
      "inputs": [
        {
          "internalType": "address",
          "name": "to",
          "type": "address"
        },
        {
          "internalType": "uint256",
          "name": "tokenId",
          "type": "uint256"
        }
      ],
      "name": "approve",
      "outputs": [],
      "stateMutability": "nonpayable",
      "type": "function"
    },
    {
      "inputs": [
        {
          "internalType": "address",
          "name": "owner",
          "type": "address"
        }
      ],
      "name": "balanceOf",
      "outputs": [
        {
          "internalType": "uint256",
          "name": "",
          "type": "uint256"
        }
      ],
      "stateMutability": "view",
      "type": "function"
    },
    {
      "inputs": [
        {
          "internalType": "string",
          "name": "",
          "type": "string"
        }
      ],
      "name": "domains",
      "outputs": [
        {
          "internalType": "address",
          "name": "",
          "type": "address"
        }
      ],
      "stateMutability": "view",
      "type": "function"
    },
    {
      "inputs": [],
      "name": "getAllNames",
      "outputs": [
        {
          "internalType": "string[]",
          "name": "",
          "type": "string[]"
        }
      ],
      "stateMutability": "view",
      "type": "function"
    },
    {
      "inputs": [
        {
          "internalType": "uint256",
          "name": "tokenId",
          "type": "uint256"
        }
      ],
      "name": "getApproved",
      "outputs": [
        {
          "internalType": "address",
          "name": "",
          "type": "address"
        }
      ],
      "stateMutability": "view",
      "type": "function"
    },
    {
      "inputs": [
        {
          "internalType": "string",
          "name": "_name",
          "type": "string"
        }
      ],
      "name": "getOwner",
      "outputs": [
        {
          "internalType": "address",
          "name": "",
          "type": "address"
        }
      ],
      "stateMutability": "view",
      "type": "function"
    },
    {
      "inputs": [
        {
          "internalType": "string",
          "name": "_name",
          "type": "string"
        }
      ],
      "name": "getPrice",
      "outputs": [
        {
          "internalType": "uint256",
          "name": "",
          "type": "uint256"
        }
      ],
      "stateMutability": "pure",
      "type": "function"
    },
    {
      "inputs": [
        {
          "internalType": "string",
          "name": "_name",
          "type": "string"
        }
      ],
      "name": "getRecord",
      "outputs": [
        {
          "internalType": "string",
          "name": "",
          "type": "string"
        }
      ],
      "stateMutability": "view",
      "type": "function"
    },
    {
      "inputs": [
        {
          "internalType": "address",
          "name": "owner",
          "type": "address"
        },
        {
          "internalType": "address",
          "name": "operator",
          "type": "address"
        }
      ],
      "name": "isApprovedForAll",
      "outputs": [
        {
          "internalType": "bool",
          "name": "",
          "type": "bool"
        }
      ],
      "stateMutability": "view",
      "type": "function"
    },
    {
      "inputs": [],
      "name": "isOwner",
      "outputs": [
        {
          "internalType": "bool",
          "name": "",
          "type": "bool"
        }
      ],
      "stateMutability": "view",
      "type": "function"
    },
    {
      "inputs": [],
      "name": "name",
      "outputs": [
        {
          "internalType": "string",
          "name": "",
          "type": "string"
        }
      ],
      "stateMutability": "view",
      "type": "function"
    },
    {
      "inputs": [],
      "name": "owner",
      "outputs": [
        {
          "internalType": "address payable",
          "name": "",
          "type": "address"
        }
      ],
      "stateMutability": "view",
      "type": "function"
    },
    {
      "inputs": [
        {
          "internalType": "uint256",
          "name": "tokenId",
          "type": "uint256"
        }
      ],
      "name": "ownerOf",
      "outputs": [
        {
          "internalType": "address",
          "name": "",
          "type": "address"
        }
      ],
      "stateMutability": "view",
      "type": "function"
    },
    {
      "inputs": [
        {
          "internalType": "string",
          "name": "",
          "type": "string"
        }
      ],
      "name": "records",
      "outputs": [
        {
          "internalType": "string",
          "name": "",
          "type": "string"
        }
      ],
      "stateMutability": "view",
      "type": "function"
    },
    {
      "inputs": [
        {
          "internalType": "string",
          "name": "_name",
          "type": "string"
        }
      ],
      "name": "register",
      "outputs": [],
      "stateMutability": "payable",
      "type": "function"
    },
    {
      "inputs": [
        {
          "internalType": "address",
          "name": "from",
          "type": "address"
        },
        {
          "internalType": "address",
          "name": "to",
          "type": "address"
        },
        {
          "internalType": "uint256",
          "name": "tokenId",
          "type": "uint256"
        }
      ],
      "name": "safeTransferFrom",
      "outputs": [],
      "stateMutability": "nonpayable",
      "type": "function"
    },
    {
      "inputs": [
        {
          "internalType": "address",
          "name": "from",
          "type": "address"
        },
        {
          "internalType": "address",
          "name": "to",
          "type": "address"
        },
        {
          "internalType": "uint256",
          "name": "tokenId",
          "type": "uint256"
        },
        {
          "internalType": "bytes",
          "name": "_data",
          "type": "bytes"
        }
      ],
      "name": "safeTransferFrom",
      "outputs": [],
      "stateMutability": "nonpayable",
      "type": "function"
    },
    {
      "inputs": [
        {
          "internalType": "address",
          "name": "operator",
          "type": "address"
        },
        {
          "internalType": "bool",
          "name": "approved",
          "type": "bool"
        }
      ],
      "name": "setApprovalForAll",
      "outputs": [],
      "stateMutability": "nonpayable",
      "type": "function"
    },
    {
      "inputs": [
        {
          "internalType": "string",
          "name": "_name",
          "type": "string"
        },
        {
          "internalType": "string",
          "name": "_record",
          "type": "string"
        }
      ],
      "name": "setRecord",
      "outputs": [],
      "stateMutability": "nonpayable",
      "type": "function"
    },
    {
      "inputs": [
        {
          "internalType": "bytes4",
          "name": "interfaceId",
          "type": "bytes4"
        }
      ],
      "name": "supportsInterface",
      "outputs": [
        {
          "internalType": "bool",
          "name": "",
          "type": "bool"
        }
      ],
      "stateMutability": "view",
      "type": "function"
    },
    {
      "inputs": [],
      "name": "symbol",
      "outputs": [
        {
          "internalType": "string",
          "name": "",
          "type": "string"
        }
      ],
      "stateMutability": "view",
      "type": "function"
    },
    {
      "inputs": [],
      "name": "tld",
      "outputs": [
        {
          "internalType": "string",
          "name": "",
          "type": "string"
        }
      ],
      "stateMutability": "view",
      "type": "function"
    },
    {
      "inputs": [
        {
          "internalType": "uint256",
          "name": "tokenId",
          "type": "uint256"
        }
      ],
      "name": "tokenURI",
      "outputs": [
        {
          "internalType": "string",
          "name": "",
          "type": "string"
        }
      ],
      "stateMutability": "view",
      "type": "function"
    },
    {
      "inputs": [
        {
          "internalType": "address",
          "name": "from",
          "type": "address"
        },
        {
          "internalType": "address",
          "name": "to",
          "type": "address"
        },
        {
          "internalType": "uint256",
          "name": "tokenId",
          "type": "uint256"
        }
      ],
      "name": "transferFrom",
      "outputs": [],
      "stateMutability": "nonpayable",
      "type": "function"
    },
    {
      "inputs": [
        {
          "internalType": "string",
          "name": "_name",
          "type": "string"
        }
      ],
      "name": "valid",
      "outputs": [
        {
          "internalType": "bool",
          "name": "",
          "type": "bool"
        }
      ],
      "stateMutability": "pure",
      "type": "function"
    },
    {
      "inputs": [],
      "name": "withdraw",
      "outputs": [],
      "stateMutability": "nonpayable",
      "type": "function"
    }
  ],
  "bytecode": "0x6080604052604051806108a0016040528061086b81526020016200545161086b9139600a908051906020019062000038929190620002c8565b506040518060400160405280600d81526020017f3c2f746578743e3c2f7376673e00000000000000000000000000000000000000815250600b908051906020019062000086929190620002c8565b5060405162005cbc38038062005cbc8339818101604052810190620000ac919062000515565b6040518060400160405280601281526020017f48656c6c6f204e616d65205365727669636500000000000000000000000000008152506040518060400160405280600581526020017f48454c4c4f000000000000000000000000000000000000000000000000000000815250816000908051906020019062000130929190620002c8565b50806001908051906020019062000149929190620002c8565b50505033600860006101000a81548173ffffffffffffffffffffffffffffffffffffffff021916908373ffffffffffffffffffffffffffffffffffffffff1602179055508060099080519060200190620001a5929190620002c8565b50620001f26040518060400160405280601881526020017f2573206e616d652073657276696365206465706c6f796564000000000000000081525082620001f960201b62001b031760201c565b5062000663565b6200029b828260405160240162000212929190620005c3565b6040516020818303038152906040527f4b5c4277000000000000000000000000000000000000000000000000000000007bffffffffffffffffffffffffffffffffffffffffffffffffffffffff19166020820180517bffffffffffffffffffffffffffffffffffffffffffffffffffffffff83818316178352505050506200029f60201b60201c565b5050565b60008151905060006a636f6e736f6c652e6c6f679050602083016000808483855afa5050505050565b828054620002d6906200062d565b90600052602060002090601f016020900481019282620002fa576000855562000346565b82601f106200031557805160ff191683800117855562000346565b8280016001018555821562000346579182015b828111156200034557825182559160200191906001019062000328565b5b50905062000355919062000359565b5090565b5b80821115620003745760008160009055506001016200035a565b5090565b6000604051905090565b600080fd5b600080fd5b600080fd5b600080fd5b6000601f19601f8301169050919050565b7f4e487b7100000000000000000000000000000000000000000000000000000000600052604160045260246000fd5b620003e18262000396565b810181811067ffffffffffffffff82111715620004035762000402620003a7565b5b80604052505050565b60006200041862000378565b9050620004268282620003d6565b919050565b600067ffffffffffffffff821115620004495762000448620003a7565b5b620004548262000396565b9050602081019050919050565b60005b838110156200048157808201518184015260208101905062000464565b8381111562000491576000848401525b50505050565b6000620004ae620004a8846200042b565b6200040c565b905082815260208101848484011115620004cd57620004cc62000391565b5b620004da84828562000461565b509392505050565b600082601f830112620004fa57620004f96200038c565b5b81516200050c84826020860162000497565b91505092915050565b6000602082840312156200052e576200052d62000382565b5b600082015167ffffffffffffffff8111156200054f576200054e62000387565b5b6200055d84828501620004e2565b91505092915050565b600081519050919050565b600082825260208201905092915050565b60006200058f8262000566565b6200059b818562000571565b9350620005ad81856020860162000461565b620005b88162000396565b840191505092915050565b60006040820190508181036000830152620005df818562000582565b90508181036020830152620005f5818462000582565b90509392505050565b7f4e487b7100000000000000000000000000000000000000000000000000000000600052602260045260246000fd5b600060028204905060018216806200064657607f821691505b602082108114156200065d576200065c620005fe565b5b50919050565b614dde80620006736000396000f3fe6080604052600436106101815760003560e01c80636352211e116100d1578063a22cb4651161008a578063c87b56dd11610064578063c87b56dd146105cc578063e985e9c514610609578063f2c298be14610646578063fb825e5f1461066257610181565b8063a22cb46514610551578063b88d4fde1461057a578063c1880a98146105a357610181565b80636352211e1461041957806370a08231146104565780638da5cb5b146104935780638f32d59b146104be57806395d89b41146104e95780639791c0971461051457610181565b8063264492351161013e57806342842e0e1161011857806342842e0e146103395780634aaf4a1214610362578063524f38891461039f578063541e771d146103dc57610181565b806326449235146102ba5780632d551432146102f75780633ccfd60b1461032257610181565b806301ffc9a71461018657806306fdde03146101c3578063081812fc146101ee578063095ea7b31461022b57806311dd88451461025457806323b872dd14610291575b600080fd5b34801561019257600080fd5b506101ad60048036038101906101a89190613081565b61068d565b6040516101ba91906130c9565b60405180910390f35b3480156101cf57600080fd5b506101d861076f565b6040516101e5919061317d565b60405180910390f35b3480156101fa57600080fd5b50610215600480360381019061021091906131d5565b610801565b6040516102229190613243565b60405180910390f35b34801561023757600080fd5b50610252600480360381019061024d919061328a565b610886565b005b34801561026057600080fd5b5061027b6004803603810190610276919061332f565b61099e565b604051610288919061317d565b60405180910390f35b34801561029d57600080fd5b506102b860048036038101906102b3919061337c565b610a51565b005b3480156102c657600080fd5b506102e160048036038101906102dc91906134ff565b610ab1565b6040516102ee9190613243565b60405180910390f35b34801561030357600080fd5b5061030c610afa565b604051610319919061317d565b60405180910390f35b34801561032e57600080fd5b50610337610b88565b005b34801561034557600080fd5b50610360600480360381019061035b919061337c565b610c84565b005b34801561036e57600080fd5b506103896004803603810190610384919061332f565b610ca4565b6040516103969190613243565b60405180910390f35b3480156103ab57600080fd5b506103c660048036038101906103c1919061332f565b610cef565b6040516103d39190613557565b60405180910390f35b3480156103e857600080fd5b5061040360048036038101906103fe91906134ff565b610de5565b604051610410919061317d565b60405180910390f35b34801561042557600080fd5b50610440600480360381019061043b91906131d5565b610e9b565b60405161044d9190613243565b60405180910390f35b34801561046257600080fd5b5061047d60048036038101906104789190613572565b610f4d565b60405161048a9190613557565b60405180910390f35b34801561049f57600080fd5b506104a8611005565b6040516104b591906135c0565b60405180910390f35b3480156104ca57600080fd5b506104d361102b565b6040516104e091906130c9565b60405180910390f35b3480156104f557600080fd5b506104fe611083565b60405161050b919061317d565b60405180910390f35b34801561052057600080fd5b5061053b6004803603810190610536919061332f565b611115565b60405161054891906130c9565b60405180910390f35b34801561055d57600080fd5b5061057860048036038101906105739190613607565b6111c9565b005b34801561058657600080fd5b506105a1600480360381019061059c91906136e8565b6111df565b005b3480156105af57600080fd5b506105ca60048036038101906105c5919061376b565b611241565b005b3480156105d857600080fd5b506105f360048036038101906105ee91906131d5565b61131c565b604051610600919061317d565b60405180910390f35b34801561061557600080fd5b50610630600480360381019061062b91906137ec565b61146e565b60405161063d91906130c9565b60405180910390f35b610660600480360381019061065b919061332f565b611502565b005b34801561066e57600080fd5b50610677611925565b6040516106849190613938565b60405180910390f35b60007f80ac58cd000000000000000000000000000000000000000000000000000000007bffffffffffffffffffffffffffffffffffffffffffffffffffffffff1916827bffffffffffffffffffffffffffffffffffffffffffffffffffffffff1916148061075857507f5b5e139f000000000000000000000000000000000000000000000000000000007bffffffffffffffffffffffffffffffffffffffffffffffffffffffff1916827bffffffffffffffffffffffffffffffffffffffffffffffffffffffff1916145b80610768575061076782611b9f565b5b9050919050565b60606000805461077e90613989565b80601f01602080910402602001604051908101604052809291908181526020018280546107aa90613989565b80156107f75780601f106107cc576101008083540402835291602001916107f7565b820191906000526020600020905b8154815290600101906020018083116107da57829003601f168201915b5050505050905090565b600061080c82611c09565b61084b576040517f08c379a000000000000000000000000000000000000000000000000000000000815260040161084290613a2d565b60405180910390fd5b6004600083815260200190815260200160002060009054906101000a900473ffffffffffffffffffffffffffffffffffffffff169050919050565b600061089182610e9b565b90508073ffffffffffffffffffffffffffffffffffffffff168373ffffffffffffffffffffffffffffffffffffffff161415610902576040517f08c379a00000000000000000000000000000000000000000000000000000000081526004016108f990613abf565b60405180910390fd5b8073ffffffffffffffffffffffffffffffffffffffff16610921611c75565b73ffffffffffffffffffffffffffffffffffffffff161480610950575061094f8161094a611c75565b61146e565b5b61098f576040517f08c379a000000000000000000000000000000000000000000000000000000000815260040161098690613b51565b60405180910390fd5b6109998383611c7d565b505050565b6060600d83836040516109b2929190613ba1565b908152602001604051809103902080546109cb90613989565b80601f01602080910402602001604051908101604052809291908181526020018280546109f790613989565b8015610a445780601f10610a1957610100808354040283529160200191610a44565b820191906000526020600020905b815481529060010190602001808311610a2757829003601f168201915b5050505050905092915050565b610a62610a5c611c75565b82611d36565b610aa1576040517f08c379a0000000000000000000000000000000000000000000000000000000008152600401610a9890613c2c565b60405180910390fd5b610aac838383611e14565b505050565b600c818051602081018201805184825260208301602085012081835280955050505050506000915054906101000a900473ffffffffffffffffffffffffffffffffffffffff1681565b60098054610b0790613989565b80601f0160208091040260200160405190810160405280929190818152602001828054610b3390613989565b8015610b805780601f10610b5557610100808354040283529160200191610b80565b820191906000526020600020905b815481529060010190602001808311610b6357829003601f168201915b505050505081565b610b9061102b565b610bcf576040517f08c379a0000000000000000000000000000000000000000000000000000000008152600401610bc690613c98565b60405180910390fd5b600047905060003373ffffffffffffffffffffffffffffffffffffffff1682604051610bfa90613ce9565b60006040518083038185875af1925050503d8060008114610c37576040519150601f19603f3d011682016040523d82523d6000602084013e610c3c565b606091505b5050905080610c80576040517f08c379a0000000000000000000000000000000000000000000000000000000008152600401610c7790613d4a565b60405180910390fd5b5050565b610c9f838383604051806020016040528060008152506111df565b505050565b6000600c8383604051610cb8929190613ba1565b908152602001604051809103902060009054906101000a900473ffffffffffffffffffffffffffffffffffffffff16905092915050565b600080610d3f84848080601f016020809104026020016040519081016040528093929190818152602001838380828437600081840152601f19601f8201169050808301925050505050505061207b565b905060008111610d84576040517f08c379a0000000000000000000000000000000000000000000000000000000008152600401610d7b90613db6565b60405180910390fd5b6002811415610d9e57670b1a2bc2ec500000915050610ddf565b6003811415610db8576706f05b59d3b20000915050610ddf565b6004811415610dd257670429d069189e0000915050610ddf565b67016345785d8a00009150505b92915050565b600d818051602081018201805184825260208301602085012081835280955050505050506000915090508054610e1a90613989565b80601f0160208091040260200160405190810160405280929190818152602001828054610e4690613989565b8015610e935780601f10610e6857610100808354040283529160200191610e93565b820191906000526020600020905b815481529060010190602001808311610e7657829003601f168201915b505050505081565b6000806002600084815260200190815260200160002060009054906101000a900473ffffffffffffffffffffffffffffffffffffffff169050600073ffffffffffffffffffffffffffffffffffffffff168173ffffffffffffffffffffffffffffffffffffffff161415610f44576040517f08c379a0000000000000000000000000000000000000000000000000000000008152600401610f3b90613e48565b60405180910390fd5b80915050919050565b60008073ffffffffffffffffffffffffffffffffffffffff168273ffffffffffffffffffffffffffffffffffffffff161415610fbe576040517f08c379a0000000000000000000000000000000000000000000000000000000008152600401610fb590613eda565b60405180910390fd5b600360008373ffffffffffffffffffffffffffffffffffffffff1673ffffffffffffffffffffffffffffffffffffffff168152602001908152602001600020549050919050565b600860009054906101000a900473ffffffffffffffffffffffffffffffffffffffff1681565b6000600860009054906101000a900473ffffffffffffffffffffffffffffffffffffffff1673ffffffffffffffffffffffffffffffffffffffff163373ffffffffffffffffffffffffffffffffffffffff1614905090565b60606001805461109290613989565b80601f01602080910402602001604051908101604052809291908181526020018280546110be90613989565b801561110b5780601f106110e05761010080835404028352916020019161110b565b820191906000526020600020905b8154815290600101906020018083116110ee57829003601f168201915b5050505050905090565b6000600361116684848080601f016020809104026020016040519081016040528093929190818152602001838380828437600081840152601f19601f8201169050808301925050505050505061207b565b101580156111c15750600a6111be84848080601f016020809104026020016040519081016040528093929190818152602001838380828437600081840152601f19601f8201169050808301925050505050505061207b565b11155b905092915050565b6111db6111d4611c75565b8383612230565b5050565b6111f06111ea611c75565b83611d36565b61122f576040517f08c379a000000000000000000000000000000000000000000000000000000000815260040161122690613c2c565b60405180910390fd5b61123b8484848461239d565b50505050565b3373ffffffffffffffffffffffffffffffffffffffff16600c858560405161126a929190613ba1565b908152602001604051809103902060009054906101000a900473ffffffffffffffffffffffffffffffffffffffff1673ffffffffffffffffffffffffffffffffffffffff16146112e6576040517f351164dc00000000000000000000000000000000000000000000000000000000815260040160405180910390fd5b8181600d86866040516112fa929190613ba1565b90815260200160405180910390209190611315929190612eec565b5050505050565b606061132782611c09565b611366576040517f08c379a000000000000000000000000000000000000000000000000000000000815260040161135d90613f6c565b60405180910390fd5b600060066000848152602001908152602001600020805461138690613989565b80601f01602080910402602001604051908101604052809291908181526020018280546113b290613989565b80156113ff5780601f106113d4576101008083540402835291602001916113ff565b820191906000526020600020905b8154815290600101906020018083116113e257829003601f168201915b5050505050905060006114106123f9565b9050600081511415611426578192505050611469565b60008251111561145b578082604051602001611443929190613fbd565b60405160208183030381529060405292505050611469565b61146484612410565b925050505b919050565b6000600560008473ffffffffffffffffffffffffffffffffffffffff1673ffffffffffffffffffffffffffffffffffffffff16815260200190815260200160002060008373ffffffffffffffffffffffffffffffffffffffff1673ffffffffffffffffffffffffffffffffffffffff16815260200190815260200160002060009054906101000a900460ff16905092915050565b600073ffffffffffffffffffffffffffffffffffffffff16600c838360405161152c929190613ba1565b908152602001604051809103902060009054906101000a900473ffffffffffffffffffffffffffffffffffffffff1673ffffffffffffffffffffffffffffffffffffffff16146115a8576040517f3a81d6fc00000000000000000000000000000000000000000000000000000000815260040160405180910390fd5b6115b28282611115565b6115f55781816040517f7f19f48d0000000000000000000000000000000000000000000000000000000081526004016115ec92919061400e565b60405180910390fd5b60006116018383610cef565b905080341015611646576040517f08c379a000000000000000000000000000000000000000000000000000000000815260040161163d9061407e565b60405180910390fd5b60008383600960405160200161165e9392919061417e565b60405160208183030381529060405290506000600a82600b604051602001611688939291906141af565b604051602081830303815290604052905060006116a560076124b7565b905060006116f687878080601f016020809104026020016040519081016040528093929190818152602001838380828437600081840152601f19601f8201169050808301925050505050505061207b565b90506000611703826124c5565b905061176c6040518060600160405280602f8152602001614d7a602f913989898080601f016020809104026020016040519081016040528093929190818152602001838380828437600081840152601f19601f8201169050808301925050505050505085612626565b60006117a28661177b876126c5565b8460405160200161178e9392919061435c565b6040516020818303038152906040526126c5565b90506000816040516020016117b79190614405565b60405160208183030381529060405290506117e9604051806060016040528060398152602001614cc86039913961285d565b6118286040518060400160405280600e81526020017f46696e616c20746f6b656e55524900000000000000000000000000000000000081525082611b03565b611849604051806060016040528060398152602001614d016039913961285d565b61185333866128f6565b61185d8582612914565b33600c8b8b604051611870929190613ba1565b908152602001604051809103902060006101000a81548173ffffffffffffffffffffffffffffffffffffffff021916908373ffffffffffffffffffffffffffffffffffffffff1602179055506118fb6040518060400160405280601a81526020017f2573206861732072656769737465726564206120646f6d61696e00000000000081525033612988565b600e6000868152602001908152602001600020506119196007612a24565b50505050505050505050565b60606119656040518060400160405280601f81526020017f47657474696e6720616c6c206e616d65732066726f6d20636f6e74726163740081525061285d565b600061197160076124b7565b67ffffffffffffffff81111561198a576119896133d4565b5b6040519080825280602002602001820160405280156119bd57816020015b60608152602001906001900390816119a85790505b50905060005b6119cd60076124b7565b811015611afb57600e600082815260200190815260200160002080546119f290613989565b80601f0160208091040260200160405190810160405280929190818152602001828054611a1e90613989565b8015611a6b5780601f10611a4057610100808354040283529160200191611a6b565b820191906000526020600020905b815481529060010190602001808311611a4e57829003601f168201915b5050505050828281518110611a8357611a82614427565b5b6020026020010181905250611ae86040518060400160405280601781526020017f4e616d6520666f7220746f6b656e20256420697320257300000000000000000081525082848481518110611adb57611ada614427565b5b6020026020010151612a3a565b8080611af390614485565b9150506119c3565b508091505090565b611b9b8282604051602401611b199291906144ce565b6040516020818303038152906040527f4b5c4277000000000000000000000000000000000000000000000000000000007bffffffffffffffffffffffffffffffffffffffffffffffffffffffff19166020820180517bffffffffffffffffffffffffffffffffffffffffffffffffffffffff8381831617835250505050612ad9565b5050565b60007f01ffc9a7000000000000000000000000000000000000000000000000000000007bffffffffffffffffffffffffffffffffffffffffffffffffffffffff1916827bffffffffffffffffffffffffffffffffffffffffffffffffffffffff1916149050919050565b60008073ffffffffffffffffffffffffffffffffffffffff166002600084815260200190815260200160002060009054906101000a900473ffffffffffffffffffffffffffffffffffffffff1673ffffffffffffffffffffffffffffffffffffffff1614159050919050565b600033905090565b816004600083815260200190815260200160002060006101000a81548173ffffffffffffffffffffffffffffffffffffffff021916908373ffffffffffffffffffffffffffffffffffffffff160217905550808273ffffffffffffffffffffffffffffffffffffffff16611cf083610e9b565b73ffffffffffffffffffffffffffffffffffffffff167f8c5be1e5ebec7d5bd14f71427d1e84f3dd0314c0f7b2291e5b200ac8c7c3b92560405160405180910390a45050565b6000611d4182611c09565b611d80576040517f08c379a0000000000000000000000000000000000000000000000000000000008152600401611d7790614577565b60405180910390fd5b6000611d8b83610e9b565b90508073ffffffffffffffffffffffffffffffffffffffff168473ffffffffffffffffffffffffffffffffffffffff161480611dfa57508373ffffffffffffffffffffffffffffffffffffffff16611de284610801565b73ffffffffffffffffffffffffffffffffffffffff16145b80611e0b5750611e0a818561146e565b5b91505092915050565b8273ffffffffffffffffffffffffffffffffffffffff16611e3482610e9b565b73ffffffffffffffffffffffffffffffffffffffff1614611e8a576040517f08c379a0000000000000000000000000000000000000000000000000000000008152600401611e8190614609565b60405180910390fd5b600073ffffffffffffffffffffffffffffffffffffffff168273ffffffffffffffffffffffffffffffffffffffff161415611efa576040517f08c379a0000000000000000000000000000000000000000000000000000000008152600401611ef19061469b565b60405180910390fd5b611f05838383612b02565b611f10600082611c7d565b6001600360008573ffffffffffffffffffffffffffffffffffffffff1673ffffffffffffffffffffffffffffffffffffffff1681526020019081526020016000206000828254611f6091906146bb565b925050819055506001600360008473ffffffffffffffffffffffffffffffffffffffff1673ffffffffffffffffffffffffffffffffffffffff1681526020019081526020016000206000828254611fb791906146ef565b92505081905550816002600083815260200190815260200160002060006101000a81548173ffffffffffffffffffffffffffffffffffffffff021916908373ffffffffffffffffffffffffffffffffffffffff160217905550808273ffffffffffffffffffffffffffffffffffffffff168473ffffffffffffffffffffffffffffffffffffffff167fddf252ad1be2c89b69c2b068fc378daa952ba7f163c4a11628f55a4df523b3ef60405160405180910390a4612076838383612b07565b505050565b60008060008084519050600092505b808210156122255760008583815181106120a7576120a6614427565b5b602001015160f81c60f81b9050608060f81b817effffffffffffffffffffffffffffffffffffffffffffffffffffffffffffff191610156120f6576001836120ef91906146ef565b9250612211565b60e060f81b817effffffffffffffffffffffffffffffffffffffffffffffffffffffffffffff191610156121385760028361213191906146ef565b9250612210565b60f060f81b817effffffffffffffffffffffffffffffffffffffffffffffffffffffffffffff1916101561217a5760038361217391906146ef565b925061220f565b60f8801b817effffffffffffffffffffffffffffffffffffffffffffffffffffffffffffff191610156121bb576004836121b491906146ef565b925061220e565b60fc60f81b817effffffffffffffffffffffffffffffffffffffffffffffffffffffffffffff191610156121fd576005836121f691906146ef565b925061220d565b60068361220a91906146ef565b92505b5b5b5b5b50828061221d90614485565b93505061208a565b829350505050919050565b8173ffffffffffffffffffffffffffffffffffffffff168373ffffffffffffffffffffffffffffffffffffffff16141561229f576040517f08c379a000000000000000000000000000000000000000000000000000000000815260040161229690614791565b60405180910390fd5b80600560008573ffffffffffffffffffffffffffffffffffffffff1673ffffffffffffffffffffffffffffffffffffffff16815260200190815260200160002060008473ffffffffffffffffffffffffffffffffffffffff1673ffffffffffffffffffffffffffffffffffffffff16815260200190815260200160002060006101000a81548160ff0219169083151502179055508173ffffffffffffffffffffffffffffffffffffffff168373ffffffffffffffffffffffffffffffffffffffff167f17307eab39ab6107e8899845ad3d59bd9653f200f220920489ca2b5937696c318360405161239091906130c9565b60405180910390a3505050565b6123a8848484611e14565b6123b484848484612b0c565b6123f3576040517f08c379a00000000000000000000000000000000000000000000000000000000081526004016123ea90614823565b60405180910390fd5b50505050565b606060405180602001604052806000815250905090565b606061241b82611c09565b61245a576040517f08c379a0000000000000000000000000000000000000000000000000000000008152600401612451906148b5565b60405180910390fd5b60006124646123f9565b9050600081511161248457604051806020016040528060008152506124af565b8061248e846124c5565b60405160200161249f929190613fbd565b6040516020818303038152906040525b915050919050565b600081600001549050919050565b6060600082141561250d576040518060400160405280600181526020017f30000000000000000000000000000000000000000000000000000000000000008152509050612621565b600082905060005b6000821461253f57808061252890614485565b915050600a826125389190614904565b9150612515565b60008167ffffffffffffffff81111561255b5761255a6133d4565b5b6040519080825280601f01601f19166020018201604052801561258d5781602001600182028036833780820191505090505b5090505b6000851461261a576001826125a691906146bb565b9150600a856125b59190614935565b60306125c191906146ef565b60f81b8183815181106125d7576125d6614427565b5b60200101907effffffffffffffffffffffffffffffffffffffffffffffffffffffffffffff1916908160001a905350600a856126139190614904565b9450612591565b8093505050505b919050565b6126c083838360405160240161263e93929190614966565b6040516020818303038152906040527ff362ca59000000000000000000000000000000000000000000000000000000007bffffffffffffffffffffffffffffffffffffffffffffffffffffffff19166020820180517bffffffffffffffffffffffffffffffffffffffffffffffffffffffff8381831617835250505050612ad9565b505050565b606060008251905060008114156126ee5760405180602001604052806000815250915050612858565b600060036002836126ff91906146ef565b6127099190614904565b600461271591906149ab565b9050600060208261272691906146ef565b67ffffffffffffffff81111561273f5761273e6133d4565b5b6040519080825280601f01601f1916602001820160405280156127715781602001600182028036833780820191505090505b5090506000604051806060016040528060408152602001614d3a604091399050600181016020830160005b868110156128155760038101905062ffffff818a015116603f8160121c168401518060081b905060ff603f83600c1c1686015116810190508060081b905060ff603f8360061c1686015116810190508060081b905060ff603f831686015116810190508060e01b9050808452600484019350505061279c565b50600386066001811461282f576002811461283f5761284a565b613d3d60f01b600283035261284a565b603d60f81b60018303525b508484525050819450505050505b919050565b6128f381604051602401612871919061317d565b6040516020818303038152906040527f41304fac000000000000000000000000000000000000000000000000000000007bffffffffffffffffffffffffffffffffffffffffffffffffffffffff19166020820180517bffffffffffffffffffffffffffffffffffffffffffffffffffffffff8381831617835250505050612ad9565b50565b612910828260405180602001604052806000815250612c94565b5050565b61291d82611c09565b61295c576040517f08c379a000000000000000000000000000000000000000000000000000000000815260040161295390614a77565b60405180910390fd5b80600660008481526020019081526020016000209080519060200190612983929190612f72565b505050565b612a20828260405160240161299e929190614a97565b6040516020818303038152906040527f319af333000000000000000000000000000000000000000000000000000000007bffffffffffffffffffffffffffffffffffffffffffffffffffffffff19166020820180517bffffffffffffffffffffffffffffffffffffffffffffffffffffffff8381831617835250505050612ad9565b5050565b6001816000016000828254019250508190555050565b612ad4838383604051602401612a5293929190614ac7565b6040516020818303038152906040527fa3f5c739000000000000000000000000000000000000000000000000000000007bffffffffffffffffffffffffffffffffffffffffffffffffffffffff19166020820180517bffffffffffffffffffffffffffffffffffffffffffffffffffffffff8381831617835250505050612ad9565b505050565b60008151905060006a636f6e736f6c652e6c6f679050602083016000808483855afa5050505050565b505050565b505050565b6000612b2d8473ffffffffffffffffffffffffffffffffffffffff16612cef565b15612c87578373ffffffffffffffffffffffffffffffffffffffff1663150b7a02612b56611c75565b8786866040518563ffffffff1660e01b8152600401612b789493929190614b61565b6020604051808303816000875af1925050508015612bb457506040513d601f19601f82011682018060405250810190612bb19190614bc2565b60015b612c37573d8060008114612be4576040519150601f19603f3d011682016040523d82523d6000602084013e612be9565b606091505b50600081511415612c2f576040517f08c379a0000000000000000000000000000000000000000000000000000000008152600401612c2690614823565b60405180910390fd5b805181602001fd5b63150b7a0260e01b7bffffffffffffffffffffffffffffffffffffffffffffffffffffffff1916817bffffffffffffffffffffffffffffffffffffffffffffffffffffffff191614915050612c8c565b600190505b949350505050565b612c9e8383612d12565b612cab6000848484612b0c565b612cea576040517f08c379a0000000000000000000000000000000000000000000000000000000008152600401612ce190614823565b60405180910390fd5b505050565b6000808273ffffffffffffffffffffffffffffffffffffffff163b119050919050565b600073ffffffffffffffffffffffffffffffffffffffff168273ffffffffffffffffffffffffffffffffffffffff161415612d82576040517f08c379a0000000000000000000000000000000000000000000000000000000008152600401612d7990614c3b565b60405180910390fd5b612d8b81611c09565b15612dcb576040517f08c379a0000000000000000000000000000000000000000000000000000000008152600401612dc290614ca7565b60405180910390fd5b612dd760008383612b02565b6001600360008473ffffffffffffffffffffffffffffffffffffffff1673ffffffffffffffffffffffffffffffffffffffff1681526020019081526020016000206000828254612e2791906146ef565b92505081905550816002600083815260200190815260200160002060006101000a81548173ffffffffffffffffffffffffffffffffffffffff021916908373ffffffffffffffffffffffffffffffffffffffff160217905550808273ffffffffffffffffffffffffffffffffffffffff16600073ffffffffffffffffffffffffffffffffffffffff167fddf252ad1be2c89b69c2b068fc378daa952ba7f163c4a11628f55a4df523b3ef60405160405180910390a4612ee860008383612b07565b5050565b828054612ef890613989565b90600052602060002090601f016020900481019282612f1a5760008555612f61565b82601f10612f3357803560ff1916838001178555612f61565b82800160010185558215612f61579182015b82811115612f60578235825591602001919060010190612f45565b5b509050612f6e9190612ff8565b5090565b828054612f7e90613989565b90600052602060002090601f016020900481019282612fa05760008555612fe7565b82601f10612fb957805160ff1916838001178555612fe7565b82800160010185558215612fe7579182015b82811115612fe6578251825591602001919060010190612fcb565b5b509050612ff49190612ff8565b5090565b5b80821115613011576000816000905550600101612ff9565b5090565b6000604051905090565b600080fd5b600080fd5b60007fffffffff0000000000000000000000000000000000000000000000000000000082169050919050565b61305e81613029565b811461306957600080fd5b50565b60008135905061307b81613055565b92915050565b6000602082840312156130975761309661301f565b5b60006130a58482850161306c565b91505092915050565b60008115159050919050565b6130c3816130ae565b82525050565b60006020820190506130de60008301846130ba565b92915050565b600081519050919050565b600082825260208201905092915050565b60005b8381101561311e578082015181840152602081019050613103565b8381111561312d576000848401525b50505050565b6000601f19601f8301169050919050565b600061314f826130e4565b61315981856130ef565b9350613169818560208601613100565b61317281613133565b840191505092915050565b600060208201905081810360008301526131978184613144565b905092915050565b6000819050919050565b6131b28161319f565b81146131bd57600080fd5b50565b6000813590506131cf816131a9565b92915050565b6000602082840312156131eb576131ea61301f565b5b60006131f9848285016131c0565b91505092915050565b600073ffffffffffffffffffffffffffffffffffffffff82169050919050565b600061322d82613202565b9050919050565b61323d81613222565b82525050565b60006020820190506132586000830184613234565b92915050565b61326781613222565b811461327257600080fd5b50565b6000813590506132848161325e565b92915050565b600080604083850312156132a1576132a061301f565b5b60006132af85828601613275565b92505060206132c0858286016131c0565b9150509250929050565b600080fd5b600080fd5b600080fd5b60008083601f8401126132ef576132ee6132ca565b5b8235905067ffffffffffffffff81111561330c5761330b6132cf565b5b602083019150836001820283011115613328576133276132d4565b5b9250929050565b600080602083850312156133465761334561301f565b5b600083013567ffffffffffffffff81111561336457613363613024565b5b613370858286016132d9565b92509250509250929050565b6000806000606084860312156133955761339461301f565b5b60006133a386828701613275565b93505060206133b486828701613275565b92505060406133c5868287016131c0565b9150509250925092565b600080fd5b7f4e487b7100000000000000000000000000000000000000000000000000000000600052604160045260246000fd5b61340c82613133565b810181811067ffffffffffffffff8211171561342b5761342a6133d4565b5b80604052505050565b600061343e613015565b905061344a8282613403565b919050565b600067ffffffffffffffff82111561346a576134696133d4565b5b61347382613133565b9050602081019050919050565b82818337600083830152505050565b60006134a261349d8461344f565b613434565b9050828152602081018484840111156134be576134bd6133cf565b5b6134c9848285613480565b509392505050565b600082601f8301126134e6576134e56132ca565b5b81356134f684826020860161348f565b91505092915050565b6000602082840312156135155761351461301f565b5b600082013567ffffffffffffffff81111561353357613532613024565b5b61353f848285016134d1565b91505092915050565b6135518161319f565b82525050565b600060208201905061356c6000830184613548565b92915050565b6000602082840312156135885761358761301f565b5b600061359684828501613275565b91505092915050565b60006135aa82613202565b9050919050565b6135ba8161359f565b82525050565b60006020820190506135d560008301846135b1565b92915050565b6135e4816130ae565b81146135ef57600080fd5b50565b600081359050613601816135db565b92915050565b6000806040838503121561361e5761361d61301f565b5b600061362c85828601613275565b925050602061363d858286016135f2565b9150509250929050565b600067ffffffffffffffff821115613662576136616133d4565b5b61366b82613133565b9050602081019050919050565b600061368b61368684613647565b613434565b9050828152602081018484840111156136a7576136a66133cf565b5b6136b2848285613480565b509392505050565b600082601f8301126136cf576136ce6132ca565b5b81356136df848260208601613678565b91505092915050565b600080600080608085870312156137025761370161301f565b5b600061371087828801613275565b945050602061372187828801613275565b9350506040613732878288016131c0565b925050606085013567ffffffffffffffff81111561375357613752613024565b5b61375f878288016136ba565b91505092959194509250565b600080600080604085870312156137855761378461301f565b5b600085013567ffffffffffffffff8111156137a3576137a2613024565b5b6137af878288016132d9565b9450945050602085013567ffffffffffffffff8111156137d2576137d1613024565b5b6137de878288016132d9565b925092505092959194509250565b600080604083850312156138035761380261301f565b5b600061381185828601613275565b925050602061382285828601613275565b9150509250929050565b600081519050919050565b600082825260208201905092915050565b6000819050602082019050919050565b600082825260208201905092915050565b6000613874826130e4565b61387e8185613858565b935061388e818560208601613100565b61389781613133565b840191505092915050565b60006138ae8383613869565b905092915050565b6000602082019050919050565b60006138ce8261382c565b6138d88185613837565b9350836020820285016138ea85613848565b8060005b85811015613926578484038952815161390785826138a2565b9450613912836138b6565b925060208a019950506001810190506138ee565b50829750879550505050505092915050565b6000602082019050818103600083015261395281846138c3565b905092915050565b7f4e487b7100000000000000000000000000000000000000000000000000000000600052602260045260246000fd5b600060028204905060018216806139a157607f821691505b602082108114156139b5576139b461395a565b5b50919050565b7f4552433732313a20617070726f76656420717565727920666f72206e6f6e657860008201527f697374656e7420746f6b656e0000000000000000000000000000000000000000602082015250565b6000613a17602c836130ef565b9150613a22826139bb565b604082019050919050565b60006020820190508181036000830152613a4681613a0a565b9050919050565b7f4552433732313a20617070726f76616c20746f2063757272656e74206f776e6560008201527f7200000000000000000000000000000000000000000000000000000000000000602082015250565b6000613aa96021836130ef565b9150613ab482613a4d565b604082019050919050565b60006020820190508181036000830152613ad881613a9c565b9050919050565b7f4552433732313a20617070726f76652063616c6c6572206973206e6f74206f7760008201527f6e6572206e6f7220617070726f76656420666f7220616c6c0000000000000000602082015250565b6000613b3b6038836130ef565b9150613b4682613adf565b604082019050919050565b60006020820190508181036000830152613b6a81613b2e565b9050919050565b600081905092915050565b6000613b888385613b71565b9350613b95838584613480565b82840190509392505050565b6000613bae828486613b7c565b91508190509392505050565b7f4552433732313a207472616e736665722063616c6c6572206973206e6f74206f60008201527f776e6572206e6f7220617070726f766564000000000000000000000000000000602082015250565b6000613c166031836130ef565b9150613c2182613bba565b604082019050919050565b60006020820190508181036000830152613c4581613c09565b9050919050565b7f4f6e6c79204f776e657200000000000000000000000000000000000000000000600082015250565b6000613c82600a836130ef565b9150613c8d82613c4c565b602082019050919050565b60006020820190508181036000830152613cb181613c75565b9050919050565b600081905092915050565b50565b6000613cd3600083613cb8565b9150613cde82613cc3565b600082019050919050565b6000613cf482613cc6565b9150819050919050565b7f4661696c656420746f207769746864726177204d617469630000000000000000600082015250565b6000613d346018836130ef565b9150613d3f82613cfe565b602082019050919050565b60006020820190508181036000830152613d6381613d27565b9050919050565b7f4c656e676874206f6620746865206e616d652073686f756c64206265203e3100600082015250565b6000613da0601f836130ef565b9150613dab82613d6a565b602082019050919050565b60006020820190508181036000830152613dcf81613d93565b9050919050565b7f4552433732313a206f776e657220717565727920666f72206e6f6e657869737460008201527f656e7420746f6b656e0000000000000000000000000000000000000000000000602082015250565b6000613e326029836130ef565b9150613e3d82613dd6565b604082019050919050565b60006020820190508181036000830152613e6181613e25565b9050919050565b7f4552433732313a2062616c616e636520717565727920666f7220746865207a6560008201527f726f206164647265737300000000000000000000000000000000000000000000602082015250565b6000613ec4602a836130ef565b9150613ecf82613e68565b604082019050919050565b60006020820190508181036000830152613ef381613eb7565b9050919050565b7f45524337323155524953746f726167653a2055524920717565727920666f722060008201527f6e6f6e6578697374656e7420746f6b656e000000000000000000000000000000602082015250565b6000613f566031836130ef565b9150613f6182613efa565b604082019050919050565b60006020820190508181036000830152613f8581613f49565b9050919050565b6000613f97826130e4565b613fa18185613b71565b9350613fb1818560208601613100565b80840191505092915050565b6000613fc98285613f8c565b9150613fd58284613f8c565b91508190509392505050565b6000613fed83856130ef565b9350613ffa838584613480565b61400383613133565b840190509392505050565b60006020820190508181036000830152614029818486613fe1565b90509392505050565b7f4e6f7420656e6f756768206d6174696320706169640000000000000000000000600082015250565b60006140686015836130ef565b915061407382614032565b602082019050919050565b600060208201905081810360008301526140978161405b565b9050919050565b7f2e00000000000000000000000000000000000000000000000000000000000000600082015250565b60006140d4600183613b71565b91506140df8261409e565b600182019050919050565b60008190508160005260206000209050919050565b6000815461410c81613989565b6141168186613b71565b94506001821660008114614131576001811461414257614175565b60ff19831686528186019350614175565b61414b856140ea565b60005b8381101561416d5781548189015260018201915060208101905061414e565b838801955050505b50505092915050565b600061418b828587613b7c565b9150614196826140c7565b91506141a282846140ff565b9150819050949350505050565b60006141bb82866140ff565b91506141c78285613f8c565b91506141d382846140ff565b9150819050949350505050565b7f7b226e616d65223a202200000000000000000000000000000000000000000000600082015250565b6000614216600a83613b71565b9150614221826141e0565b600a82019050919050565b7f222c20226465736372697074696f6e223a20224120646f6d61696e206f6e207460008201527f6865204e696e6a61206e616d652073657276696365222c2022696d616765223a60208201527f2022646174613a696d6167652f7376672b786d6c3b6261736536342c00000000604082015250565b60006142ae605c83613b71565b91506142b98261422c565b605c82019050919050565b7f222c226c656e677468223a220000000000000000000000000000000000000000600082015250565b60006142fa600c83613b71565b9150614305826142c4565b600c82019050919050565b7f227d000000000000000000000000000000000000000000000000000000000000600082015250565b6000614346600283613b71565b915061435182614310565b600282019050919050565b600061436782614209565b91506143738286613f8c565b915061437e826142a1565b915061438a8285613f8c565b9150614395826142ed565b91506143a18284613f8c565b91506143ac82614339565b9150819050949350505050565b7f646174613a6170706c69636174696f6e2f6a736f6e3b6261736536342c000000600082015250565b60006143ef601d83613b71565b91506143fa826143b9565b601d82019050919050565b6000614410826143e2565b915061441c8284613f8c565b915081905092915050565b7f4e487b7100000000000000000000000000000000000000000000000000000000600052603260045260246000fd5b7f4e487b7100000000000000000000000000000000000000000000000000000000600052601160045260246000fd5b60006144908261319f565b91507fffffffffffffffffffffffffffffffffffffffffffffffffffffffffffffffff8214156144c3576144c2614456565b5b600182019050919050565b600060408201905081810360008301526144e88185613144565b905081810360208301526144fc8184613144565b90509392505050565b7f4552433732313a206f70657261746f7220717565727920666f72206e6f6e657860008201527f697374656e7420746f6b656e0000000000000000000000000000000000000000602082015250565b6000614561602c836130ef565b915061456c82614505565b604082019050919050565b6000602082019050818103600083015261459081614554565b9050919050565b7f4552433732313a207472616e736665722066726f6d20696e636f72726563742060008201527f6f776e6572000000000000000000000000000000000000000000000000000000602082015250565b60006145f36025836130ef565b91506145fe82614597565b604082019050919050565b60006020820190508181036000830152614622816145e6565b9050919050565b7f4552433732313a207472616e7366657220746f20746865207a65726f2061646460008201527f7265737300000000000000000000000000000000000000000000000000000000602082015250565b60006146856024836130ef565b915061469082614629565b604082019050919050565b600060208201905081810360008301526146b481614678565b9050919050565b60006146c68261319f565b91506146d18361319f565b9250828210156146e4576146e3614456565b5b828203905092915050565b60006146fa8261319f565b91506147058361319f565b9250827fffffffffffffffffffffffffffffffffffffffffffffffffffffffffffffffff0382111561473a57614739614456565b5b828201905092915050565b7f4552433732313a20617070726f766520746f2063616c6c657200000000000000600082015250565b600061477b6019836130ef565b915061478682614745565b602082019050919050565b600060208201905081810360008301526147aa8161476e565b9050919050565b7f4552433732313a207472616e7366657220746f206e6f6e20455243373231526560008201527f63656976657220696d706c656d656e7465720000000000000000000000000000602082015250565b600061480d6032836130ef565b9150614818826147b1565b604082019050919050565b6000602082019050818103600083015261483c81614800565b9050919050565b7f4552433732314d657461646174613a2055524920717565727920666f72206e6f60008201527f6e6578697374656e7420746f6b656e0000000000000000000000000000000000602082015250565b600061489f602f836130ef565b91506148aa82614843565b604082019050919050565b600060208201905081810360008301526148ce81614892565b9050919050565b7f4e487b7100000000000000000000000000000000000000000000000000000000600052601260045260246000fd5b600061490f8261319f565b915061491a8361319f565b92508261492a576149296148d5565b5b828204905092915050565b60006149408261319f565b915061494b8361319f565b92508261495b5761495a6148d5565b5b828206905092915050565b600060608201905081810360008301526149808186613144565b905081810360208301526149948185613144565b90506149a36040830184613548565b949350505050565b60006149b68261319f565b91506149c18361319f565b9250817fffffffffffffffffffffffffffffffffffffffffffffffffffffffffffffffff04831182151516156149fa576149f9614456565b5b828202905092915050565b7f45524337323155524953746f726167653a2055524920736574206f66206e6f6e60008201527f6578697374656e7420746f6b656e000000000000000000000000000000000000602082015250565b6000614a61602e836130ef565b9150614a6c82614a05565b604082019050919050565b60006020820190508181036000830152614a9081614a54565b9050919050565b60006040820190508181036000830152614ab18185613144565b9050614ac06020830184613234565b9392505050565b60006060820190508181036000830152614ae18186613144565b9050614af06020830185613548565b8181036040830152614b028184613144565b9050949350505050565b600081519050919050565b600082825260208201905092915050565b6000614b3382614b0c565b614b3d8185614b17565b9350614b4d818560208601613100565b614b5681613133565b840191505092915050565b6000608082019050614b766000830187613234565b614b836020830186613234565b614b906040830185613548565b8181036060830152614ba28184614b28565b905095945050505050565b600081519050614bbc81613055565b92915050565b600060208284031215614bd857614bd761301f565b5b6000614be684828501614bad565b91505092915050565b7f4552433732313a206d696e7420746f20746865207a65726f2061646472657373600082015250565b6000614c256020836130ef565b9150614c3082614bef565b602082019050919050565b60006020820190508181036000830152614c5481614c18565b9050919050565b7f4552433732313a20746f6b656e20616c7265616479206d696e74656400000000600082015250565b6000614c91601c836130ef565b9150614c9c82614c5b565b602082019050919050565b60006020820190508181036000830152614cc081614c84565b905091905056fe0a2d2d2d2d2d2d2d2d2d2d2d2d2d2d2d2d2d2d2d2d2d2d2d2d2d2d2d2d2d2d2d2d2d2d2d2d2d2d2d2d2d2d2d2d2d2d2d2d2d2d2d2d2d2d2d2d2d2d2d2d2d2d2d2d2d2d2d2d2d2d2d2d2d2d2d2d2d2d2d2d2d2d2d2d2d2d2d2d2d2d2d2d2d2d2d2d2d2d2d2d2d2d2d2d2d2d2d2d2d2d2d2d0a4142434445464748494a4b4c4d4e4f505152535455565758595a6162636465666768696a6b6c6d6e6f707172737475767778797a303132333435363738392b2f5265676973746572696e6720257320206f6e2074686520636f6e7472616374207769746820746f6b656e4964202564a2646970667358221220e68712a392f0192733d2693687037089e8ae5956d6db738d66226696d885157564736f6c634300080a00333c73766720786d6c6e733d22687474703a2f2f7777772e77332e6f72672f323030302f737667222077696474683d2232373022206865696768743d22323730222066696c6c3d226e6f6e65223e3c706174682066696c6c3d2275726c282342292220643d224d302030683237307632373048307a222f3e3c646566733e3c66696c7465722069643d22412220636f6c6f722d696e746572706f6c6174696f6e2d66696c746572733d2273524742222066696c746572556e6974733d227573657253706163654f6e55736522206865696768743d22323730222077696474683d22323730223e3c666544726f70536861646f772064783d2230222064793d22312220737464446576696174696f6e3d22322220666c6f6f642d6f7061636974793d222e323235222077696474683d223230302522206865696768743d2232303025222f3e3c2f66696c7465723e3c2f646566733e3c7061746820643d224d37322e3836332034322e393439632d2e3636382d2e3338372d312e3432362d2e35392d322e3139372d2e3539732d312e3532392e3230342d322e3139372e35396c2d31302e30383120362e3033322d362e383520332e3933342d31302e30383120362e303332632d2e3636382e3338372d312e3432362e35392d322e3139372e3539732d312e3532392d2e3230342d322e3139372d2e35396c2d382e3031332d342e37323161342e353220342e35322030203020312d312e3538392d312e363136632d2e3338342d2e3636352d2e3539342d312e3431382d2e3630382d322e313837762d392e3331632d2e3031332d2e3737352e3138352d312e3533382e3537322d322e32303861342e323520342e323520302030203120312e3632352d312e3539356c372e3838342d342e3539632e3636382d2e33383720312e3432362d2e353920322e3139372d2e353973312e3532392e32303420322e3139372e35396c372e38383420342e353961342e353220342e353220302030203120312e35383920312e363136632e3338342e3636352e35393420312e3431382e36303820322e31383776362e3033326c362e38352d342e303635762d362e303332632e3031332d2e3737352d2e3138352d312e3533382d2e3537322d322e32303861342e323520342e32352030203020302d312e3632352d312e3539354c34312e3435362032342e3539632d2e3636382d2e3338372d312e3432362d2e35392d322e3139372d2e3539732d312e3532392e3230342d322e3139372e35396c2d31342e38363420382e36353561342e323520342e32352030203020302d312e36323520312e353935632d2e3338372e36372d2e35383520312e3433342d2e35373220322e3230387631372e343431632d2e3031332e3737352e31383520312e3533382e35373220322e32303861342e323520342e323520302030203020312e36323520312e3539356c31342e38363420382e363535632e3636382e33383720312e3432362e353920322e3139372e353973312e3532392d2e32303420322e3139372d2e35396c31302e3038312d352e39303120362e38352d342e3036352031302e3038312d352e393031632e3636382d2e33383720312e3432362d2e353920322e3139372d2e353973312e3532392e32303420322e3139372e35396c372e38383420342e353961342e353220342e353220302030203120312e35383920312e363136632e3338342e3636352e35393420312e3431382e36303820322e31383776392e333131632e3031332e3737352d2e31383520312e3533382d2e35373220322e32303861342e323520342e32352030203020312d312e36323520312e3539356c2d372e38383420342e373231632d2e3636382e3338372d312e3432362e35392d322e3139372e3539732d312e3532392d2e3230342d322e3139372d2e35396c2d372e3838342d342e353961342e353220342e35322030203020312d312e3538392d312e363136632d2e3338352d2e3636352d2e3539342d312e3431382d2e3630382d322e313837762d362e3033326c2d362e383520342e30363576362e303332632d2e3031332e3737352e31383520312e3533382e35373220322e32303861342e323520342e323520302030203020312e36323520312e3539356c31342e38363420382e363535632e3636382e33383720312e3432362e353920322e3139372e353973312e3532392d2e32303420322e3139372d2e35396c31342e3836342d382e363535632e3635372d2e33393420312e3230342d2e393520312e3538392d312e363136732e3539342d312e3431382e3630392d322e3138375635352e353338632e3031332d2e3737352d2e3138352d312e3533382d2e3537322d322e32303861342e323520342e32352030203020302d312e3632352d312e3539356c2d31342e3939332d382e3738367a222066696c6c3d2223666666222f3e3c646566733e3c6c696e6561724772616469656e742069643d2242222078313d2230222079313d2230222078323d22323730222079323d2232373022206772616469656e74556e6974733d227573657253706163654f6e557365223e3c73746f702073746f702d636f6c6f723d2223636235656565222f3e3c73746f70206f66667365743d2231222073746f702d636f6c6f723d2223306364376534222073746f702d6f7061636974793d222e3939222f3e3c2f6c696e6561724772616469656e743e3c2f646566733e3c7465787420783d2233322e352220793d223233312220666f6e742d73697a653d223238222066696c6c3d2223666666222066696c7465723d2275726c282341292220666f6e742d66616d696c793d22506c7573204a616b617274612053616e732c44656a6156752053616e732c4e6f746f20436f6c6f7220456d6f6a692c4170706c6520436f6c6f7220456d6f6a692c73616e732d73657269662220666f6e742d7765696768743d22626f6c64223e",
  "linkReferences": {},
  "deployedLinkReferences": {}
}